:04000000D4C0FECF9B
:10000400FDCFFCCFFBCFFACFF9CFF8CFF7CFF6CFA8
:10001400F5CFF4CFF3CFF2CFF1CFF0CFEFCFEECFD8
:10002400FBC0ECCF36C1EACFE9CFE8CFE7CFE6CFCC
:100034001027E80364000A0001000010000110000A
:1000440001004750474C4C2C002C4E2C30004130C2
:100054003031393044343436410041303031394163
:100064004443433432004130303138424642313225
:10007400430041303031393041373035390069700F
:10008400002052656164696E672049502077616978
:100094007400526168756C005369646461727468B9
:1000A400004E696B68696C00537572657368005221
:1000B400616D6573680053776970652055722043DC
:1000C40061726400496E76616C6964006174200D2C
:1000D4000061742B636D67663D310D0061742B63A1
:1000E40066756E3D310D0061742B636D67733D0061
:1000F4003932343238333837313600404C54004CBE
:10010400470041540D0041542B434D47463D310DAA
:100114000041542B43495053454E4400415400413F
:10012400542B434D47463D310041542B43495053D2
:1001340045525645523D312C31323334000A0D00BC
:1001440061742B63696673720000070090014600B6
:10015400050097014D000C009C0152000C00A80101
:100164005E000C00B4016A000C00C00176000300BC
:10017400DE0182001100F1018500060002029600F2
:10018400090008029C0007001102A50007001802DC
:10019400AC0007001F02B3000E002602BA000800DC
:1001A4003402C8000000F894EE27EFBBE5BFF8E185
:1001B400A895A4B7A77FA4BFF0936000E093600064
:1001C4008DE0A2E0BB27ED938A95E9F780E092E009
:1001D400A0E0B1E0ED930197E9F7EEE4F1E0859159
:1001E4009591009761F0A591B59105901590BF0187
:1001F400F00105900D920197E1F7FB01F0CFE0E0EB
:10020400EEBBE0E0EABDE0E0EBBDEFEFEDBFE2E026
:10021400EEBFC0E8D1E07AC0AA93BA93EA93EFB7ED
:10022400EA93C9D40091C0001091C600E02FEC718C
:1002340009F012C0A72DB0E0A058BE4F1C937394D0
:10024400E8E0E71509F001C077249394E8E0E915A4
:1002540009F002C09924F09AB8D4E991EFBFE9916A
:10026400B991A99118950A93992009F001C0FCCF7E
:10027400E82DC4D3E058FE4F00818394E8E0E815EC
:1002840009F001C08824F8949A947894E02F099195
:100294000895EA93FA93EFB7EA93CC2009F40EC0D9
:1002A400CA94EB2DABD3E857FE4FE081E093C60030
:1002B400B394E8E0EB1509F001C0BB24E991EFBF6A
:1002C400F991E9911895E8E0EC1509F001C0FBCF2C
:1002D400F894CC2009F006C0E091C000E07209F463
:1002E40001C00EC0EA2D8AD3E857FE4FA881A0832F
:1002F400A394E8E0EA1509F001C0AA24C39403C05A
:10030400E881E093C600789421960895E0E8E093AC
:100314006100E0E0E0936100E5B9E7E0E4B9E0E022
:10032400E8B9E3E3E7B9E4E0EBB9E4EFEAB9E0E024
:10033400E093B600E093B000E093B100E093B20024
:10034400E093B300E093B400E0936900EDBBE09365
:100354006800E093C000E8EDE093C100E6E0E093BC
:10036400C200E0E0E093C500E3E3E093C400E0E80A
:10037400E0BFE0E0E0937B007894459A449A40D350
:1003840044D348D368D14BD340D3459A449AE0E050
:10039400E91508F04CC067DFE33309F401C0FBCF73
:1003A4004424EBE04E1608F00CC03CD3FF93EF93CB
:1003B4005ADFAF91BF91EC9335D339D384DF4394A3
:1003C400F0CFE0E0E093570235D3ECE9F1E037D326
:1003D40039D309F005C014D3E2E0F2E036D327C0E4
:1003E40029D3E8EAF1E038D309F005C009D3E8E0FD
:1003F400F2E02BD31CC01ED3E4EBF1E02DD309F0C3
:1004040005C0FED2E1E1F2E020D311C013D3E0EC49
:10041400F1E022D309F005C0F3D2E8E1F2E015D30C
:1004240006C0EED2E4E3F2E00AD36ED117D3ABCF29
:10043400FFCF18D34598449A15D3E1E0EE1509F49B
:10044400ADC0E0E0E91508F0A8C00DDFE43209F41E
:1004540001C0FBCF4424E6E04E1608F009C0E2D206
:10046400FF93EF9300DFAF91BF91EC934394F3CFED
:10047400E0E0E0935202DED2E0E9F1E0EDD209F0EF
:100484008CC0EE245524E8E15E1608F009C0EED2D3
:10049400FF93EF93E8DEAF91BF91EC935394F3CFC6
:1004A400E0E0E0937002DED2E0EDF0E0E4D2E5EDCE
:1004B400F0E0E1D2D3D2E0EEF0E0DDD2CFD2EBEE49
:1004C400F0E0D9D2E2E2DCD2E4EFF0E0D4D2E2E22E
:1004D400D7D2E0E2F3E0D6D2D7D2C4D2EFEFF0E045
:1004E400CAD2B9D09CD25524E9E05E1608F010C0F7
:1004F400A52DB0E0AB52BE4FB9D2E081EC93B6D299
:1005040096D2E0E0C4D2B2D292D2DDDE5394ECCFE4
:10051400E3E0F1E0B0D2E0ECBCD2EEE05E2EE7E145
:100524005E1608F012C0A2D282D2CDDE9FD27FD254
:10053400E0E0ADD2EEE0E51961D2EB52FE4FDF010F
:1005440095D2E081EC935394EACF88D2EAE198D231
:10055400E0E2FEE497D238D05DD221D0EFEFF0E0B4
:100564008AD279D05524E9E05E1608F005C07ED21F
:100574005ED2A9DE5394F7CFE3E0F1E07CD2EEE063
:100584005E2EE7E15E1608F005C070D250D29BDE05
:100594005394F7CF12D03ED25ED04FCF0895E6E009
:1005A400F1E069D278D2EAE0F1E065D274D2E5E113
:1005B400F1E061D269D252D2089550D2EAE160D218
:1005C400E8EBFBE05FD208954DD2459844984AD2B7
:1005D40042D025D2E1EFF1E032D296D043D2E0E22C
:1005E400F1E049D23BD250D2E3E2F1E044D236D238
:1005F4004BD234D2EDE2F1E03ED230D2E1E4F1E08C
:100604003AD231DEEB3409F401C0FBCF2CDEEB34FB
:1006140009F401C0FBCF26D2E4E4F1E02CD21ED2CF
:1006240033D221DEEA3009F401C0FBCF14D0F7D174
:100634004424E0E14E1608F00DC030D2FF93EF934E
:1006440012DEAF91BF91EC9329D2F1D1E1E01FD238
:100654004394EFCF0895E1E01CD2E6E01AD2089566
:10066400EFE0F0E00FD2E3E014D2E5E0F0E00AD2EC
:10067400E3E00FD218D2E3E00CD215D2E2E009D2C3
:1006840012D2E8E206D207D2E0E603D204D2ECE0CA
:1006940000D20ED2E6E0FDD10BD2E0E9FAD108D2C5
:1006A400E1E0F7D1E2E0F0E0EDD1089584D200E09A
:1006B40010E0EA81EF700E2FEA81E295EF701E2FB1
:1006C4001F700F701295107F0295007F88EE93E0E3
:1006D4000197F1F72898EFD175D22396089569D23E
:1006E4003C8320E000E010E0ED81E07F1E2FED81EF
:1006F400E295E07F0E2F80EB94E00197F1F7289AC2
:10070400DAD15ED226960895A881B981EC91E030C1
:1007140009F40AC0EBD1EC91EA93E1E0B8D1E6D157
:10072400ED91A883B983F0CF22960895DFD137D213
:10073400309709F40AC0DAD1ED91FD913196FE9318
:10074400EE933197AA81A08302C0EA8199D12396BE
:10075400089526972CD200E0E889F9893196E88B30
:10076400F98B3197E4913E2FE03009F42BC1E02F4F
:10077400E03009F007C0353209F002C001E001C0E1
:10078400B8D11FC1E13009F019C0353209F003C0F6
:10079400B0D100E016C102E050E010E03D3209F0B3
:1007A40002C011E00EC13B3209F002C05BE209C194
:1007B400303209F002C050E204C103C0E23009F053
:1007C40008C040E003E0303309F002C01068F9C00B
:1007D40003C0E33009F0F5C0303308F404C03A3301
:1007E40008F001C001C009C0A42FEAE0EA9FF001AB
:1007F4004E2FE32FE0534E0FE4C0E32FE33609F00E
:1008040005C07CD1EC9181D1DBC003C0E33709F092
:1008140006C074D17FD19AD10E2F09C003C0E0372E
:1008240009F00AC06BD176D19BD10E2F18601260EB
:100834001F7720E038C003C0E43609F001C003C0CC
:10084400E93609F002C0146003C0E53709F006C0B8
:10085400E4E3F0E063D105E00DC003C0E83509F03E
:1008640002C0186003C0E83709F0AAC0EEE3F0E064
:1008740055D104E012FF14C041D191D152D1AA85BF
:10088400BB8510970CF005C0EA85FB8584D149D15E
:100894005DE2503009F402C00F5F01C01B7F03C04A
:1008A4002DD17DD13ED110FD11C0041708F00EC02A
:1008B40017FF08C012FF04C01B7F352F015001C071
:1008C40030E301C030E215D14150EFCF202F11FFAA
:1008D4001AC0203009F416C013FF08C0EE81FF814E
:1008E40031961CD13197E49110D106C0AE81BF81FD
:1008F400ED91AE83BF8309D1403009F401C041506A
:100904002150E7CF54C030E3EE81FF81329606D107
:10091400329749D1E887F987E885F985AA85BB85A7
:10092400AE17BF0708F409C03F5FA885B985EA85FB
:10093400FB85EA1BFB0BF5D0EFCF3A3308F405C077
:1009440013FF02C0395F01C0395D14FF01C023C029
:10095400313308F006C0A885B985119709F401C0A0
:1009640002C010610CC0421708F403C010FD01C09E
:1009740001C016C030E217FF0EC030E3106112FF51
:100984000AC01B7F5A93ED85FE8559D0CFDE4030D7
:1009940009F401C04150ADD0403009F401C04150C8
:1009A4002150A885B985129708F401C0ACCF10FF77
:1009B40007C0403009F404C04150E0E2A6D0F9CFAA
:1009C40000E0CACEFBD062960895FF92F82E2297DB
:1009D400F2D0DE01DCD08D01E0E0EA83EB83DE01BE
:1009E4001496D5D0DCD02BD01A930A93FE013696F8
:1009F40026D0AFDEE7D02496FF900895F0E0089566
:100A04002ADE2EDEE0E8EA9351CEE6E2F2E0FA9343
:100A1400EA937ACEE8E8F3E1FA93EA93ACC0E0E82B
:100A2400EA9344CEE42DEADFE45BFD4F0895E081D0
:100A3400EA930895ECE4F2E0FA93EA930895FA93C2
:100A4400EA93089571D0E0300895F9DF5DDEE8EEB1
:100A5400F3E0F5DF90D0EDCCF2DFF4CFE8EEF3E095
:100A6400EEDF89C0ECE2F1E0EADF85C0E52DC6DF08
:100A7400E85AFD4F0895E3DF80E0A7DF229608954A
:100A8400EA9321CCDCDF77C0E3EDF0E0F4CFEA9326
:100A940026CEEA930BCEE4E6F0E0F4CFE42DAEDF0D
:100AA400EF51FE4F089580E491E00197F1F7089526
:100AB400E1E0F0E0E7CF29982A9AEBB1EF70EBB9C7
:100AC400EBB1E12BEBB98DE08A95F1F72A988DE033
:100AD4008A95F1F72A9AEBB1EF70EBB9EBB1E02B01
:100AE400EBB98DE08A95F1F72A980895A881B98128
:100AF40008953A93ED85FE85A2DF18CEAE85BF85B5
:100B04001497AE87BF8714960895EA93ED85FE8502
:100B140096DF0CCE44D0EE83FF8391CFEE83FF8328
:100B24000895EA87FB870895E991F991A991B9910C
:100B34006D917191671721F46623D1F7EE2708951B
:100B4400671BE1F3E1E008F4E2500895A991B9913B
:100B5400EE27FF276D91662311F03196FBCF0895A0
:100B6400AA27BB27E991F9910590002011F011966D
:100B7400FBCFFD010895E991F991309639F080EDAC
:100B840097E00197F1F7A8953197C9F708950024E4
:100B9400AF0DB01D0895E095F09531960895ED914F
:100BA400FC91119708950590F491E02D08955A93BE
:100BB4004A933A932A931A930A9308955D814C8138
:100BC4003B812A8119810881089509911991089519
:00000001FF
